:10000000000003203D02000089020000195A000090
:100010008D0200008F02000091020000000000002D
:10002000000000000000000000000000930200003B
:10003000950200000000000097020000ED51000052
:10004000BD460000C5460000CD460000D546000074
:10005000DD460000E5460000ED460000F5460000E4
:10006000FD460000054700000D4700001547000051
:100070001D470000254700002D47000035470000C0
:100080003D470000454700004D4700005547000030
:100090005D470000654700006D47000075470000A0
:1000A0007D470000854700008D4700009547000010
:1000B0009D470000A5470000AD470000B547000080
:1000C000BD470000C5470000CD470000D5470000F0
:1000D000DD470000E5470000ED470000F547000060
:1000E000FD470000054800000D48000015480000CD
:1000F0001D480000254800002D480000354800003C
:100100003D480000454800004D48000055480000AB
:100110005D480000654800006D480000754800001B
:100120007D480000854800008D480000954800008B
:100130009D480000A5480000AD480000B5480000FB
:10014000BD480000C5480000CD480000D54800006B
:10015000DD480000E5480000ED480000F5480000DB
:10016000FD480000054900000D4900001549000048
:100170001D490000254900002D49000035490000B7
:100180003D490000454900004D4900005549000027
:100190005D490000654900006D4900007549000097
:1001A0007D490000854900008D4900009549000007
:1001B0009D490000014B0000A5490000AD49000029
:1001C000B5490000BD490000C5490000CD49000007
:1001D000907C0000000000208C020000907C000059
:1001E0000000FF1F00000000907C000000000014D1
:1001F0000000000000080020D41000000000FF1FD5
:1002000000000000000000140000000000239342E2
:100210000AD210B404680C600433043004319342F1
:10022000F8D35DF8044B70477047002303E00022C9
:100230000260043304308B42F9D3704710B572B6B4
:1002400007F0B2F90D4B07E003F10C049A68596806
:100250001868FFF7DBFF2346094A9342F4D306E010
:100260001C46596854F8080BFFF7DFFF2346054A80
:100270009342F5D362B604F0F1FDFEE7D001000031
:10028000F40100000C020000FEE7FEE7FEE7FEE7D7
:10029000FEE7FEE7FEE7FEE7FEE7FEE7FFFFFFFF04
:1002A000FFFFFFFFFFFFFFFFFFFFFFFFFFFFFFFF5E
:1002B000FFFFFFFFFFFFFFFFFFFFFFFFFFFFFFFF4E
:1002C000FFFFFFFFFFFFFFFFFFFFFFFFFFFFFFFF3E
:1002D000FFFFFFFFFFFFFFFFFFFFFFFFFFFFFFFF2E
:1002E000FFFFFFFFFFFFFFFFFFFFFFFFFFFFFFFF1E
:1002F000FFFFFFFFFFFFFFFFFFFFFFFFFFFFFFFF0E
:10030000FFFFFFFFFFFFFFFFFFFFFFFFFFFFFFFFFD
:10031000FFFFFFFFFFFFFFFFFFFFFFFFFFFFFFFFED
:10032000FFFFFFFFFFFFFFFFFFFFFFFFFFFFFFFFDD
:10033000FFFFFFFFFFFFFFFFFFFFFFFFFFFFFFFFCD
:10034000FFFFFFFFFFFFFFFFFFFFFFFFFFFFFFFFBD
:10035000FFFFFFFFFFFFFFFFFFFFFFFFFFFFFFFFAD
:10036000FFFFFFFFFFFFFFFFFFFFFFFFFFFFFFFF9D
:10037000FFFFFFFFFFFFFFFFFFFFFFFFFFFFFFFF8D
:10038000FFFFFFFFFFFFFFFFFFFFFFFFFFFFFFFF7D
:10039000FFFFFFFFFFFFFFFFFFFFFFFFFFFFFFFF6D
:1003A000FFFFFFFFFFFFFFFFFFFFFFFFFFFFFFFF5D
:1003B000FFFFFFFFFFFFFFFFFFFFFFFFFFFFFFFF4D
:1003C000FFFFFFFFFFFFFFFFFFFFFFFFFFFFFFFF3D
:1003D000FFFFFFFFFFFFFFFFFFFFFFFFFFFFFFFF2D
:1003E000FFFFFFFFFFFFFFFFFFFFFFFFFFFFFFFF1D
:1003F000FFFFFFFFFFFFFFFFFFFFFFFFFFFFFFFF0D
:10040000FFFFFFFFFFFFFFFFFFFFFFFFFEFFFFFFFD
:1004100080B586B002AFF860B9607A603B607B68F7
:100420000093BB68FA683968024800F043F800BEE0
:10043000FDE700BFE875000080B584B000AFF8604C
:10044000B9603B601346FB71FB79002B05D1084B6B
:10045000084A69210848FFF7DBFFF9793B68BA6869
:10046000F86800F0ADF9034618461037BD4680BD68
:1004700028760000787600005476000080B487B0BB
:1004800000AFF860B9607A60FB687B6105E07B696A
:100490005A1C7A61BA68D2B21A707B685A1E7A60A6
:1004A000002BF4D1FB6818461C37BD465DF8047B71
:1004B0007047FFFF0FB480B5A4B000AF0023C7F8AA
:1004C0008C300023C7F888303B1D8022002118465D
:1004D000FFF7D4FF07F19C03C7F884303A1D0D4B9A
:1004E000D7F88410D7F8980000F062FAC7F88C00AB
:1004F000D7F88C203B1D1146184600F079F9C7F853
:100500008800D7F8883018469037BD46BDE880404F
:1005100004B070471905000080B586B000AFF860E0
:10052000B9603B601346FB7100237B6100237B6154
:100530001CE0BB681B6801337F2B08D9BB681B68B4
:100540001946F86800F054F9BB6800221A60BB68CD
:100550001B681A46FB681344FA791A70BB681B685B
:100560005A1CBB681A607B6901337B617A693B68FE
:100570009A42DEDB00BF1837BD4680BD80B483B031
:1005800000AF78600B46FB70FB78002B08D07B68CF
:10059000DB78DBB243F00803DAB27B68DA7007E09D
:1005A0007B68DB78DBB223F00803DAB27B68DA70B1
:1005B00000BF0C37BD465DF8047B704780B483B044
:1005C00000AF78600B46FB70FB78002B08D07B688F
:1005D000DB78DBB243F00403DAB27B68DA7007E061
:1005E0007B68DB78DBB223F00403DAB27B68DA7075
:1005F00000BF0C37BD465DF8047B704780B483B004
:1006000000AF78600B46FB70FB78002B06D07B6850
:100610009B6843F400227B689A6005E07B689B68D6
:1006200023F400227B689A6000BF0C37BD465DF85A
:10063000047B704780B483B000AF78600B46FB70DA
:10064000FB78002B06D07B689B6843F480227B6894
:100650009A6005E07B689B6823F480227B689A603F
:1006600000BF0C37BD465DF8047B704780B58CB089
:1006700000AFF860B9607A603B60FB68002B05D181
:10068000294B2A4AF0212A48FFF7C2FEFB681A7953
:10069000284B1A71FB681B68264A1360254B1B798F
:1006A000022B20D0062B02D0012B00D037E007F11F
:1006B0002003184606F03AFCBB683B621D4B1B68E2
:1006C00007F120017A68184606F09CFA194B1B685E
:1006D00001211846FFF752FF164B1B6801211846EF
:1006E000FFF76CFF1BE007F11003184606F0F0F867
:1006F000BB683B610F4B1B6807F110017A68184615
:1007000005F094FF0B4B1B6801211846FFF776FF9D
:10071000084B1B6801211846FFF78CFF00BF00BF84
:100720003037BD4680BD00BF88760000AC76000043
:10073000947600000008002080B586B000AFF86015
:10074000B9601346FB7100237B611C4B1B79022BA4
:1007500017D0062B01D0012B27D1FB79002B07D016
:10076000164B1B68BA68F968184606F03AFC1FE099
:10077000124B1B68BA68F968184606F051FC78619C
:1007800016E0FB79002B07D00C4B1B68BA68F968A0
:10079000184606F02BF90BE0084B1B68BA68F9689D
:1007A000184606F051F9786102E001237B6100BF31
:1007B0007B6918461837BD4680BD00BF0008002081
:1007C00080B586B000AFF8607A603B600B46FB7284
:1007D000FB683B61FB7A3B7507F1100000233A6828
:1007E0007968FFF743FF002318461837BD4680BDE0
:1007F00080B582B000AF786039607B68002B06D18D
:10080000074B084A40F23F110748FFF701FE3968DD
:10081000786800F00BF8034618460837BD4680BDDF
:10082000B4760000E4760000C076000080B584B0A5
:1008300000AF786039600023FB733B68002B11D058
:100840007B68002B0ED00123FB73FB7B002B09D0B0
:10085000012239687868FFF76FFF0346002B01D04B
:1008600000233B603B6818461037BD4680BD80B40E
:100870008DB000AFF860B9607A603B600023FB6127
:10088000FB68BB61BB695A1CBA6100221A707B68A5
:10089000002B35D0BB681B68FB62FB6A002B2BD199
:1008A000BB6930221A70FB690133FB61FB6962E0AE
:1008B000FA6A3B6892FBF3F37B617B693A6802FB5F
:1008C00003F3FA6AD31ABB62BB6A002B06DABB6A6F
:1008D0003B623B6AC3F13003BB6202E0BB6A303368
:1008E000BB627B69FB62BB695A1CBA61BA6AD2B24D
:1008F0001A70FB690133FB61FB6A002BD8D139E028
:10090000BB681B687B627B6A002B30D1BB693022DD
:100910001A70FB690133FB61FB692CE03B687A6A62
:10092000B2FBF3F33B613B683A6902FB03F37A6A7B
:10093000D31A3B623B6A092B03D83B6A30333B62D4
:100940000AE097F83830002B01D0412200E0612204
:100950003B6A13440A3B3B623B697B62BB695A1C9E
:10096000BA613A6AD2B21A70FB690133FB617B6AE1
:10097000002BD3D1FB6918463437BD465DF8047BA4
:10098000704780B485B000AF78607B68FB6002E0A0
:10099000FB680133FB60FB681B78002BF8D1FA6819
:1009A0007B68D31A18461437BD465DF8047B704740
:1009B00090B59DB002AFF860B9607A603B600023EB
:1009C0003B660023FB650023BB61002387F84A30A8
:1009D00000233B61FB687B668BE17B6C252B08D099
:1009E0007B6CDAB207F118013C6801237868A047F4
:1009F0007CE1012387F84B3000237B650023BB6536
:100A00001BE07B6E01337B667B6E1B787B647B6CAB
:100A10002F2B0DDD7B6C392B0ADC7A6D13469B0086
:100A200013445B001A467B6C1344303B7B6504E047
:100A30007B6E013B7B660123BB65BB6D002BE0D069
:100A400006233B657B6E01337B667B6E1B782E2B0A
:100A500024D100233B650023BB651BE07B6E013383
:100A60007B667B6E1B787B647B6C2F2B0DDD7B6C38
:100A7000392B0ADC3A6D13469B0013445B001A467F
:100A80007B6C1344303B3B6504E07B6E013B7B6633
:100A90000123BB65BB6D002BE0D002E07B6E013B08
:100AA0007B667B6E01337B667B6E1B787B647B6C25
:100AB000642B1BD07B6C692B18D07B6C662B15D0FC
:100AC0007B6C462B12D07B6C782B0FD07B6C582B19
:100AD0000CD07B6C6F2B09D07B6C622B06D07B6CAF
:100AE000702B03D07B6C752B40F0BD807B6C642B2E
:100AF00002D07B6C692B15D1BB681A1DBA601B68CC
:100B00007B6107F1140107F11C0097F84B3000934B
:100B10000A230122FFF7ABFEF86507F11C02FB6D0B
:100B200013443B667B6C582B02D07B6C782B1BD11B
:100B30007B6C782B02D1002387F84B30BB681A1DE1
:100B4000BA601B683B6107F1100107F11C0097F8C0
:100B50004B30009310230022FFF789FEF86507F160
:100B60001C02FB6D13443B667B6C6F2B08D07B6CC7
:100B7000622B05D07B6C702B02D07B6C752B56D111
:100B8000BB681A1DBA601B683B617B6C623B132B10
:100B90003AD801A252F823F0F10B0000090C000032
:100BA000090C0000090C0000090C0000090C0000F1
:100BB000090C0000090C0000090C0000090C0000E1
:100BC000090C0000090C0000090C0000E90B0000F2
:100BD000F90B0000090C0000090C0000090C0000D2
:100BE000090C0000010C0000082387F84A300BE0D4
:100BF000022387F84A3007E0102387F84A3003E0E1
:100C00000A2387F84A3000BF97F84A2007F11001FD
:100C100007F11C0097F84B30009313460022FFF7B2
:100C200026FEF86507F11C02FB6D13443B66FB6D65
:100C30007A6DD31A07F118013C6820227868A04722
:100C40003B6E002B52D009E03B6E5A1E3A661A7872
:100C500007F118013C6801237868A0473B6E1B78B8
:100C6000002BF1D142E07B6C632B0ED1BB681A1DC7
:100C7000BA601B68DBB23B643B6CDAB207F1180167
:100C80003C6801237868A04730E07B6C732B25D14A
:100C9000BB681A1DBA601B68FB64FB6C002B25D077
:100CA000F86CFFF76EFE0346FB65FB6D7A6DD31A99
:100CB00007F118013C6820227868A04709E0FB6C26
:100CC0005A1CFA641A7807F118013C680123786805
:100CD000A047FB6C1B78002BF1D107E07B6CDAB2EC
:100CE00007F118013C6801237868A0477B6E013347
:100CF0007B667B6E1B787B647B6C002B7FF46DAE18
:100D0000BB6918466C37BD4690BD00BF80B489B042
:100D100000AF0346FB7100237B610023BB61214BC5
:100D20003B61204BFB60FB79012B01D8002333E0B2
:100D3000FB79023BFB710023FB611BE0FB699B001D
:100D400007F12002134453F8103C002B0FD0BA696E
:100D5000531CBB61FB699B0007F120010B4453F856
:100D6000101C930007F12002134443F8141CFB6984
:100D70000133FB61FB69002BE0D0FA79BB699A4231
:100D800001D9002308E0FB799B0007F120021344FE
:100D900053F8143C7B617B6918462437BD465DF8E7
:100DA000047B704700200A4080B586B000AF034640
:100DB000B9607A60FB73FB7B1846FFF7A7FF786189
:100DC0007B69002B01D101232CE07B691F22C3F832
:100DD00030217B691B6B43F480427B691A637B691A
:100DE0001B6B43F400427B691A637B6900221A6023
:100DF0007B691B6923F00F1323F470637A68127800
:100E000002F00F017A685278120402F47022114342
:100E10007A689278120202F470620A431A437B697C
:100E20001A61002318461837BD4680BD80B487B0CC
:100E300000AF78607B68DA687B681A617B681B6941
:100E40007B6101233B610DE07B68DA683B695B01F4
:100E500013441A467B691A607B691B687B613B6996
:100E600001333B613B690F2BEED97B6900221A608D
:100E70007B68102283F854207B685B687A6852682C
:100E8000D2F8402122F47F02C3F840217B685B68DE
:100E90007A685268D2F84021C3F840217B685B68C9
:100EA0007A685268D2F8A82142F00802C3F8A82153
:100EB0007B685B687A685268D2F8A82122F0040245
:100EC000C3F8A8210023FB602CE07B689A68FB68CC
:100ED0009B01134401229A607B689A68FB689B011E
:100EE0001A441368402161F31A4313607A68FB685F
:100EF00004339B00134400225A607A68FB680C3369
:100F00009B00134400225A607B689A68FB689B012F
:100F10001A4492F838306FF3000382F83830FB68D7
:100F20000133FB60FB68072BCFD97B685B687A686D
:100F30009268C3F858217B685B680022C3F854218B
:100F40007B685B684722C3F848217B68002283F8EE
:100F5000562000BF1C37BD465DF8047B704780B546
:100F600086B000AF786039603B689B7803F00F0271
:100F70003B689B78DB0803F010031343012202FA5D
:100F800003F33B613B681B88C3F30A03FB823B68A6
:100F90009B7803F00F03FB733B689B78DB09BB7303
:100FA000FB7B5B00DAB2BB7B13437B733B68DB7874
:100FB00003F003033B733B689B781946786800F0A5
:100FC000F9FF7B685B68D3F8B0213B691340002BC5
:100FD00007D17B685B68D3F8B8213B691340002BCD
:100FE00001D0022399E03B7B012B1BD1FB8AB3F597
:100FF000806F02D94FF48063FB827B689A687B7BA9
:101000009B011A44FB8ADB0ADBB203F00303DBB269
:101010000133DBB203F00303D9B2136861F39F73AA
:10102000136008E07B689A687B7B9B011A44136815
:101030006FF39F7313607B689A687B7B9B011A44F4
:10104000FB8AC3F30A0399B2136861F31A4313606E
:101050007B689A687B7B9B011A443B681B79002B59
:101060000CBF01230023D9B2136861F35D731360D1
:101070003B7B002B1ED17B689A687B7B9B011A44CB
:10108000136843F4004313607B685A687B685B68AD
:10109000D3F8C011BB7B002B04D03B7B9B0443F4F3
:1010A000400303E03B7B9B0043F0C0030B43C2F8CB
:1010B000C03126E07B689A687B7B9B011A441368E9
:1010C0006FF3CF3313607B685968FB7B581E7B68D6
:1010D0005A68FB7B013B70339B0013445A68BB7B0F
:1010E000002B04D03B7B9B0443F4400303E03B7B99
:1010F0009B0043F0C0031A4300F170039B000B44B4
:101100005A607B689A687B7B9B011A4492F838305E
:1011100043F0010382F83830002318461837BD46E3
:1011200080BD80B584B000AF78600B46FB70FB7863
:1011300003F00F02FB78DB0803F0100313430122D6
:1011400002FA03F3FB60FB7803F00F03FB72FB78FA
:10115000DB09BB72FB7A5B00DAB2BB7A13437B72AA
:101160007B689A687B7A9B011A4492F838306FF357
:10117000000382F83830FB781946786800F01AFFCF
:101180007B685B68D3F8B021FB681340002B07D164
:101190007B685B68D3F8B821FB681340002B01D053
:1011A000022336E07B689A687B7A9B011344002215
:1011B0001A60FB7A002B11D17B685B687A685268F1
:1011C000D2F8C011BA7A002A02D06FF40C0201E002
:1011D0006FF08C020A40C3F8C02119E07B6859689F
:1011E000FB7A581E7B685A68FB7A013B70339B0080
:1011F00013445A68BB7A002B02D06FF40C0301E051
:101200006FF08C031A4000F170039B000B445A608E
:10121000002318461037BD4680BD80B584B000AFAE
:1012200078600B46FB70FB7803F00F03FB73FB78D1
:10123000DB09BB73FB7B5B00DAB2BB7B13437B73C5
:10124000FB781946786800F0B5FE7B689A687B7B6E
:101250009B0113441B68C3F3C033DBB2002B21D0C6
:10126000FB7B002B0AD17B685B687A685268D2F8F6
:10127000C02142F00112C3F8C02140E07B685968E8
:10128000FB7B581E7B685A68FB7B013B70339B00DD
:1012900013445B6843F0011200F170039B000B44A0
:1012A0005A602CE0FB7B002B10D17B685B687A686E
:1012B0005268D2F8C011BA7B002A02D04FF48032B3
:1012C00000E001220A43C3F8C02118E07B68596896
:1012D000FB7B581E7B685A68FB7B013B70339B008D
:1012E00013445A68BB7B002B02D04FF4803300E0DC
:1012F00001231A4300F170039B000B445A60002342
:1013000018461037BD4680BD80B485B000AF786008
:101310000B46FB70FB7803F00F03FB73FB78DB09D4
:10132000BB73FB7B002B11D17B685B687A685268CA
:10133000D2F8C011BA7B002A02D06FF4803201E0EB
:101340006FF001020A40C3F8C02132E07B6859689F
:10135000FB7B581E7B685A68FB7B013B70339B000C
:1013600013445A68BB7B002B02D06FF4803301E03A
:101370006FF001031A4000F170039B000B445A60A8
:101380007B685968FB7B581E7B685A68FB7B013B76
:1013900070339B0013445A68BB7B002B02D04FF480
:1013A000800300E040231A4300F170039B000B44CC
:1013B0005A60002318461437BD465DF8047B704719
:1013C00080B485B000AF78600B46FB700123FB73DF
:1013D000FB785B00BB737B685B68FA78012101FADC
:1013E00002F2C3F8AC212BE07B685B687A68526834
:1013F000D2F8402142F40052C3F840217B689A6839
:10140000BB7B9B0113447A689168BA7B92010A44C2
:10141000926A1A637B689A68BB7B9B0113447A6863
:101420009168BA7B92010A44D26A5A637B685B680E
:10143000D3F8403103F40053002B01D00023FB7399
:10144000FB7B002BD0D17B685B687A685268D2F84E
:10145000402122F40052C3F8402100BF7B685B6842
:10146000D3F8AC21FB78012101FA03F31340002BE0
:10147000F4D100BF1437BD465DF8047B704780B5DA
:1014800088B000AF78600B46FB701346BB70FB78EA
:101490005A00BB781344BB610023BB600023FB6090
:1014A0007A68BB6904339B0013445B6823F01F0315
:1014B000FB61A6E0BB68002B0ED1FB699B687B61DA
:1014C0007B6923F47F6323F00F03FA69928BC2F3E5
:1014D0000B0292B21343BB60FB695B68DBB25BB289
:1014E000002B03DA4FF0FF33FB600DE0FB69DB6993
:1014F000C3F312331A46FB695B68C3F30E439BB216
:10150000D21AFB681344FB607A68BB6904339B0002
:1015100013445A687968BB690C339B000B445B68C1
:101520009A421CD17A68BB6904339B0013440022A1
:101530005A607A68BB690C339B00134400225A60DE
:101540007B689A68BB699B01134401229A607B689F
:101550009A68BB699B0113440022DA600DE07A6847
:10156000BB6904339B0013445B681B6819467A68A7
:10157000BB6904339B0013445960FB695B68C3F388
:10158000C033DBB2002B09D17A68BB6904339B00FE
:1015900013445B6823F01F03002B14D1BB78DB01DD
:1015A000DAB2FB781343DBB23B7400237B747B68B5
:1015B0001B6807F108021146184601F0EDFE0023F2
:1015C000BB600023FB60FB6900225A607B681B69DB
:1015D0001A46FB691A607B68FA691A617B6893F99D
:1015E0005430DBB20133DBB25AB27B6883F854204B
:1015F0007A68BB6904339B0013445B6823F01F03C4
:10160000FB61FB69002B7FF455AF00BF2037BD465F
:1016100080BD80B58CB000AF78607B685B68D3F824
:10162000AC317B627B6A002B4DD0002387F82B30D6
:1016300045E097F82B3001229A407B6A1340002B3B
:1016400038D07B689A6897F82B305B00DBB29B013F
:10165000134430333B623B6A1B78DB0987F82A303E
:1016600097F82A2097F82B3019467868FFF707FF7C
:1016700097F82A3083F00103DAB297F82B30194635
:101680007868FFF7FCFE97F82B303B753B6AFB60F0
:1016900008233B6101237B7597F82B301946786846
:1016A000FFF78EFE7B681B6807F10C021146184697
:1016B00001F072FE97F82B30013387F82B3097F842
:1016C0002B30032BB5D97B685B68D3F8BC317B62C8
:1016D0007B685B687A6AC3F8BC217B6A002B00F0E8
:1016E0008181002387F8293077E197F8293001229A
:1016F0009A407B6A1340002B00F06A8197F82930EA
:101700000F2B08D997F82930103B87F82B3001238D
:1017100087F82A3006E097F8293087F82B30002325
:1017200087F82A3097F82B30032B00F24E8197F878
:101730002B305B00DAB297F82A301344FB77002392
:10174000FB6000233B61FB7F7A6804339B001344FA
:101750005B6823F01F03FB6232E1002387F8283027
:10176000FB7F7A6804339B0013445B6823F01F03FC
:10177000FB6222E0FB6A5B68DBB25BB2002B06DB3C
:10178000FB6A5B68C3F3C033DBB2002B10D0FB6A8B
:101790005B68DBB25BB2002B13DBFB6A5B68C3F3F5
:1017A000C033DBB2002B0CD0012387F8283008E0CF
:1017B000FB6A1B6823F01F03FB62FB6A002BD9D175
:1017C00000E000BF97F82830002B03D1FB6A002B04
:1017D00040F0FD80FB7F7A6804339B0013445B6814
:1017E00023F01F03FB62E7E0FB6A5B68DBB25BB2DE
:1017F000002B00DAE4E0FB68002B0CD1FB6A9B684D
:1018000023F47F6323F00F03FA6A928BC2F30B0277
:1018100092B21343FB60FB6ADB69C3F312331A46CF
:10182000FB6A5B68C3F30E439BB2D21A3B69134455
:101830003B61FB7F7A6804339B0013445A68FB7F4B
:1018400079680C339B000B445B689A421CD1FB7F88
:101850007A6804339B00134400225A60FB7F7A6845
:101860000C339B00134400225A607B689A68FB7F0C
:101870009B01134401229A607B689A68FB7F9B015D
:1018800013440022DA600DE0F97FFB7F7A680433AD
:101890009B0013445B681B6818467A680B1D9B000D
:1018A00013445860FB6A5B68C3F3C033DBB2002BA0
:1018B00009D1FB7F7A6804339B0013445B6823F0F3
:1018C0001F03002B16D197F82A30DB01DAB297F804
:1018D0002B301343DBB23B7500237B757B681B68A1
:1018E00007F10C021146184601F056FD0023FB607B
:1018F00000233B61FB6A00225A607B681B691A4621
:10190000FB6A1A607B68FA6A1A617B6893F9543043
:10191000DBB20133DBB25AB27B6883F85420FB7F21
:101920007A6804339B0013445B6823F01F03FB6257
:10193000FB6A002B40D0FB6A5B68DBB25BB2002B1A
:101940003ADA97F82B2097F82A301B01134401222A
:1019500002FA03F3BB617B685B68BA69C3F8B02124
:101960007B685B68D3F8B821BB691340002B23D197
:1019700000BF7B685B68D3F8B021BB691340002BC4
:10198000F7D17B685B68D3F8B821BB691340002BA3
:1019900012D17B689A68FB7F9B011344FA6A9A60B4
:1019A0007B689A68FB7F9B0113440022DA607B68A6
:1019B0005B68BA69C3F8B021FB6A002B7FF414AFEF
:1019C000FB6A002B7FF4C9AE02E000BF00E000BF5D
:1019D00097F82930013387F8293097F829301F2BE1
:1019E0007FF683AE00BF3037BD4680BD80B586B080
:1019F00000AF78600023FB6000233B6100237B7510
:101A00007B685B68D3F8843103F48073002B23D1A7
:101A10007B685B68D3F8843103F40073002B04D037
:101A20007B68022283F8582003E07B68002283F859
:101A300058207B6893F85630002B0DD010233B754F
:101A40007B681B6807F10C021146184601F0A4FCE4
:101A50007B68002283F8562000BF1837BD4680BD42
:101A600080B586B000AF786000237B617B685B68DF
:101A7000D3F8AC317B617B685B687A69C3F8AC21D1
:101A80007B685B68D3F8BC317B617B685B687A6993
:101A9000C3F8BC217B685B684FF00F12C3F8B42118
:101AA0007B685B68D3F8B03103F00F13002BF1D1E2
:101AB0007B685B68D3F8843103F48073002B04D017
:101AC0007B68012283F856200FE00023BB601023BF
:101AD0003B740023FB6000237B747B681B6807F169
:101AE00008021146184601F057FC00BF1837BD46E2
:101AF00080BD80B483B000AF786000BF0C37BD46B6
:101B00005DF8047B704780B58EB000AFF8607A60F6
:101B10003B600B46FB72FB7A5B0003F01E03FA7A14
:101B2000D209D2B21343FB61FB7A03F00F02FB7AB6
:101B3000DB0803F010031343012202FA03F3BB6135
:101B4000BB6987F833300023BB623B6803F57F53E2
:101B50003F339B0B7B62002387F82330012387F8F8
:101B60002230FB68002B01D103234EE1FB689A6809
:101B7000FB699B01134493F8383003F00103DBB297
:101B8000002B01D1012340E1FB6893F85630002B74
:101B900001D0012339E17B6A002B01D101237B6253
:101BA00007F11003184603F06BFFFB6893F95430FC
:101BB0001A467B6A9A4205D23B69184603F06EFFCB
:101BC000022322E13B68B3F5804F03D94FF48043F1
:101BD000FB6201E03B68FB623A68FB6AD31A3B6038
:101BE000FB681B697B617B691B681A46FB681A618D
:101BF000FB6893F95430DBB2013BDBB25AB2FB68AD
:101C000083F85420BB6A002B01D17B697B637B691D
:101C100001221A607B6900225A607A68BB6A134409
:101C20001A467B699A607B699B6803F5805323F4AD
:101C30007F6323F00F037A69D3607B69DB6803F568
:101C400080527B691A617B691B6903F580527B694D
:101C50005A617B695B6903F580527B699A61FB6A13
:101C60009BB2C3F30E0399B27A69536861F31E43C2
:101C70005360FB6AC3F312017A69D36961F31E33BF
:101C8000D3617B699B689BB2C3F30B0399B27A69FA
:101C9000938B61F30B0393837A69D37F6FF3C7133D
:101CA000D3773B68002B04D17A69536843F400432F
:101CB00053607A695368802161F307035360BA6AFD
:101CC000FB6A1344BB62FA68FB690C339B00134444
:101CD0005B68002B0FD0FA68FB690C339B00134440
:101CE0005B687A691A60FA68FB690C339B001344DD
:101CF0007A695A6010E0FA68FB6904339B00134468
:101D00007A695A60FA68FB690C339B0013447A695C
:101D10005A60012387F823303B68002B7FF452AFD1
:101D200097F82330002B36D1FB685B68D3F8B021DD
:101D3000BB691340002B20D03B69184603F0AEFE70
:101D4000002362E0FB685B68FA685268D2F84021C1
:101D500042F48042C3F84021FB685B68D3F8B83195
:101D600087F83330FB685B68D3F8403103F4804375
:101D7000002B02D0002387F8223097F82230002B66
:101D8000E0D1FB685B68FA685268D2F8402122F41F
:101D90008042C3F8402197F82330002B05D197F8F3
:101DA0003320BB691340002B2AD1FB689A68FB697A
:101DB0009B0113447A6B9A60FB689A68FB699B01EC
:101DC00013440022DA60FB685B68BA69C3F8B0218B
:101DD0000CE0FB685B68D3F8BC21BB691340002BA7
:101DE0000DD1FB685B68BA69C3F8B021FB685B681A
:101DF000D3F8B821BB691340002BEAD000E000BF44
:101E00003B69184603F04AFE002318463837BD46A2
:101E100080BDFFFF80B586B000AF0346B9607A6031
:101E2000FB73334B3B61FB7B012B05D9FB7B022B07
:101E300002D1FB7B022B01D0062354E0FB7B023B4B
:101E40005C2202FB03F32B4A13447B61FB7B023BC6
:101E50005B02294A1A447B69DA60FB7B023BDB02A6
:101E6000264A1A447B699A607B69FA7B83F857207B
:101E7000FB7B023B9B0007F11802134453F8083C1C
:101E80001A467B695A607B695B68D3F82431DBB200
:101E900003F01F03DAB27B6983F855207B6993F85E
:101EA0005530032B01D801231DE07B69BA681A6005
:101EB0007B695B687A695268D2F8A82122F0030234
:101EC000C3F8A8217B695B687A695268D2F8A821B7
:101ED00042F00202C3F8A8217869FEF7A7FF7B68E9
:101EE0007A691A60002318461837BD4680BD00BFC6
:101EF00000100A40001400200012002000100020F2
:101F000080B485B000AF78607B68FB607B68002B95
:101F100001D1032319E0FB685B680022C3F8482164
:101F2000FB685B68FA685268D2F8402122F001022F
:101F3000C3F84021FB685B68FA685268D2F8402118
:101F400042F00202C3F84021002318461437BD4670
:101F50005DF8047B704780B584B000AFF8607A60AC
:101F60003B600B46FB72FB7A03F00F03DBB263F0BE
:101F70007F03D9B23B687A68F868FFF7C4FD03466F
:101F800018461037BD4680BD80B584B000AFF860FC
:101F90007A603B600B46FB72FB7A03F00F03D9B209
:101FA0003B687A68F868FFF7AEFD034618461037BD
:101FB000BD4680BD80B58AB000AF78600B46FB702F
:101FC0007B683B62FB7803F00F02FB78DB0803F0D1
:101FD00010031343012202FA03F3FB61FB785B0059
:101FE000DBB203F01E03DAB2FB78DB09DBB213438A
:101FF000FB767B68002B01D10323E7E007F10803A0
:10200000184603F03DFD0023FB604FF0FF333B61BA
:10201000FB7E3A6A04339B0013445B6823F01F0382
:102020007B6209E07A6AD37F43F08003D3777B6ACF
:102030001B6823F01F037B627B6A002BF2D1FB7EBF
:102040003A6A04339B0013445B6823F01F037B62EE
:10205000A0E07B6ADB7F23F07F03DBB2002B00F084
:102060009E807B6A5B68DBB25BB2002B1ADA3B6A4C
:102070005B683A6A5268D2F8B411FA690A43C3F845
:10208000B42100BF3B6A5B68D3F8B421FB691340FD
:10209000002BF7D13B6A5B68D3F8B821FB6913408A
:1020A000002BE4D1FB68002B0CD17B6A9B6823F4E6
:1020B0007F6323F00F037A6A928BC2F30B0292B212
:1020C0001343FB60FB7E3A6A04339B0013445A6857
:1020D000FB7E396A0C339B000B445B689A420ED13D
:1020E000FB7E3A6A04339B00134400225A60FB7E55
:1020F0003A6A0C339B00134400225A600DE0F97ECB
:10210000FB7E3A6A04339B0013445B681B681846E5
:102110003A6A0B1D9B00134458607B6A5B68C3F3EB
:10212000C033DBB2002B09D1FB7E3A6A04339B003B
:1021300013445B6823F01F03002B0DD1FB783B7524
:1021400000237B753B6A1B6807F10C021146184699
:1021500001F022F90023FB607B6A00225A603B6A8F
:102160001B691A467B6A1A603B6A7A6A1A613B6A83
:1021700093F95430DBB20133DBB25AB23B6A83F8D5
:102180005420FB7E3A6A04339B0013445B6823F0BF
:102190001F037B627B6A002B7FF45BAF00E000BF14
:1021A0007B6A002B0DD13B6A9A68FB7E9B0113442E
:1021B00001229A603B6A9A68FB7E9B0113440022CD
:1021C000DA60BB68184603F069FC0023184628371C
:1021D000BD4680BD80B58AB000AFF8600B467A601E
:1021E000FB72FB683B62012387F82730FB68002BFA
:1021F00001D103232AE1FB7A112B00F2148101A201
:1022000052F823F04D2200006922000085220000D0
:102210009D220000BD220000DD220000FD22000002
:1022200017230000A5230000272400002724000016
:10223000272400002724000027240000C5230000D5
:102240000B24000027240000272400003B6A5B6861
:102250003A6A5268D2F8402142F00102C3F84021A4
:10226000002387F82730EFE03B6A5B683A6A5268E0
:10227000D2F8402122F00102C3F84021002387F860
:102280002730E1E07B68002B00F0CF807968386A66
:10229000FEF765FE034687F82730C6E07B68002B13
:1022A00000F0C5807B68FB61FB691B781946386AC2
:1022B000FEF737FF034687F82730B8E07B68002B2E
:1022C00000F0B7807B68FB61FB691B781946386AB0
:1022D000FEF7A3FF034687F82730AAE07B68002BB0
:1022E00000F0A9807B68FB61FB691B781946386A9E
:1022F000FFF70AF8034687F827309CE07B68002B3D
:1023000000F09B807B68BB61BB6901221A800023BF
:1023100087F8273091E07B68002B00F090807B6885
:102320007B617B691B7803F00F03FB747B691B786F
:10233000DB09BB74FB7C032B00F28180FB7C002B50
:1023400018D03B6A5A68FB7C013B70339B001344F6
:102350005A68BB7C002B02D04FF4803300E001238D
:102360001340002B14BF01230023DBB29AB27B6918
:102370005A8013E03B6A5B68D3F8C021BB7C002B1A
:1023800002D04FF4803300E001231340002B14BF30
:1023900001230023DBB29AB27B695A80002387F8BD
:1023A00027304CE07B68002B4BD07B68FB613B6A9D
:1023B0005B68FA6912785206C3F85421002387F843
:1023C00027303EE0002387F8263013E097F82630C8
:1023D00063F07F03DBB21946386AFEF7A2FE97F876
:1023E00026301946386AFEF79CFE97F826300133EE
:1023F00087F8263097F82630032BE7D9386AFEF79E
:1024000015FD002387F827301EE07B68002B1AD0CB
:102410007B68FB613B6A93F85820FB691A700023C4
:1024200087F827300FE000BF0EE000BF0CE000BFD0
:102430000AE000BF08E000BF06E000BF04E000BF04
:1024400002E000BF00E000BF97F8273018462837A9
:10245000BD4680BD80B586B000AF78607B687B618B
:102460007B68002B34D07B691B683B613B695B68F0
:10247000D3F84431FB603B695B68D3F84831FA68B4
:102480001340FB603B695B68FA68C3F84421FB6852
:1024900003F04003002B02D03869FFF7E1FAFB6834
:1024A00003F00103002B02D03869FFF7B2F8FB6894
:1024B00003F00403002B02D03869FFF797FAFB689A
:1024C00003F08003002B04D03869FFF712FB00E013
:1024D00000BF1837BD4680BD80B586B000AFF8603C
:1024E000B9607A603B600523FB75FB681B6807F1E8
:1024F00016020621184601F067F9BB7D012B04D0B6
:10250000BB7D002B01D0FB7D56E0BB681B7803F040
:102510001F03002B18D1FB681868FB680C331A46A0
:10252000042101F051F90346FB75FB689B8903F018
:1025300003039AB2FB689A81FB689A89FB689A81C7
:102540003B6802221A6031E0BB681B7803F01F036E
:10255000012B08D10023FB75FB6800229A813B68A0
:1025600002221A6022E0BB681B7803F01F03022BD3
:102570001CD1BB689B88DBB23B7400237B82FB6869
:102580001B6807F110020521184601F01DF90346EA
:10259000FB757B8A03F003039AB2FB689A81FB68A0
:1025A0009A89FB689A813B6802221A60FB6803F1F2
:1025B0000C027B681A60FB7D18461837BD4680BD4B
:1025C00080B586B000AFF860B9607A603B600523E3
:1025D000FB7500237B75FB681B6807F1160206215B
:1025E000184601F0F1F8BB7D012B04D0BB7D002B18
:1025F00001D0FB7D59E0BB685B78032B01D101233F
:102600007B75BB681B7803F01F03002B0ED1BB68E2
:102610005B88012B48D1FB681B6807F11502142168
:10262000184601F067FF0346FB753DE0BB681B7869
:1026300003F01F03022B37D1BB685B88002B33D11B
:10264000BB689B8803F00F03002B15D17B7D002B0B
:1026500009D0FB681A68BB689B88DBB21946104634
:1026600001F082F808E0FB681A68BB689B88DBB25F
:102670001946104601F090F87B7D002B0AD0FB68CC
:102680001868BB6804331A46052101F0C3FE0346EF
:10269000FB7509E0FB681868BB6804331A4606211D
:1026A00001F0B8FE0346FB75FB7D18461837BD46A2
:1026B00080BD80B586B000AFF860B9607A603B60DD
:1026C0000523FB75FB681B6807F1160206211846F7
:1026D00001F07AF8BB7D032B0AD0BB7D012B07D01C
:1026E000BB7D022B04D0BB7D002B01D0FB7D2AE0FB
:1026F000BB7D032B0ED0BB685B88DBB2BB75FB6870
:102700001B6807F116020721184601F0C3F80346BB
:10271000FB7517E0FB681B6800220721184601F0D3
:10272000B9F80346FB75FB7D002B0BD10123BB756C
:10273000FB681B6807F116020621184601F0AAF88B
:102740000346FB75FB7D18461837BD4680BD80B536
:102750008AB000AFF860B9607A603B60052387F803
:102760002730BB685B881B0A9BB287F82630BB68A2
:102770005B8887F82530FB681B6807F11702062184
:10278000184601F021F8FB7D012B08D0FB7D002BC2
:1027900005D0FB7D022B02D097F8273087E0BB687D
:1027A000DB88FB6197F82630012B0BD1FB681B6897
:1027B00007F118020B21184601F09CFE034687F82A
:1027C00027306CE097F82630022B0FD197F8253090
:1027D00087F82030FB681B6807F118020C211846A7
:1027E00001F088FE034687F8273058E097F8263036
:1027F000032B12D197F8253087F82230BB689B88CD
:102800003B84FB681B6807F118020D21184601F094
:1028100071FE034687F8273041E097F82630212BD8
:1028200010D1BB689B88DBB287F82030FB681B683F
:1028300007F118020E21184601F05CFE034687F8E6
:1028400027302CE097F82630222B10D1BB689B88CC
:10285000DBB287F82030FB681B6807F118020F21F4
:10286000184601F047FE034687F8273017E097F82F
:102870002630232B13D197F8253087F82030BB68FA
:102880009B88DBB287F82130FB681B6807F11802D0
:102890001021184601F02EFE034687F82730BA694A
:1028A0007B681A60FA693B681A6097F82730184607
:1028B0002837BD4680BD80B586B000AFF860B960EE
:1028C0007A603B60FB681B6807F117020621184617
:1028D00000F07AFFFB7D012B04D0FB7D002B01D0A3
:1028E000052310E03B6801221A60FB6803F10C022B
:1028F0007B681A60FB681868FB680C331A46152160
:1029000001F0F8FD034618461837BD4680BD80B576
:1029100086B000AFF860B9607A603B60FB681B6806
:1029200007F117020621184600F04EFFFB7D012B30
:1029300004D0FB7D002B01D0052328E00023FB758C
:10294000FB681B6807F117020621184600F0A2FF7A
:10295000BB685B88002B09D10123FB75FB681B68F2
:1029600007F117020621184600F094FFFB6818686B
:10297000BB6802331A46032101F04CFDFB6818685E
:10298000BB6802331A46092101F0B4FD034618461C
:102990001837BD4680BD80B586B000AFF860B9601D
:1029A0007A603B600523FB75FB681B6807F1160224
:1029B0000621184600F008FFBB7D002B01D0FB7DEF
:1029C0001CE03B6801221A60FB6803F10C027B6883
:1029D0001A60BB689B881B029AB2FB689A81FB68ED
:1029E0001868FB680C331A46162101F083FD034674
:1029F000FB75FB689A89FB689A81FB7D184618373E
:102A0000BD4680BD80B586B000AFF860B9607A6021
:102A10003B60FB681B6807F117020621184600F0AF
:102A2000D3FEFB7D002B01D005231CE0BB689B88F7
:102A30001B029AB2BB685B88DBB29BB213439AB2AB
:102A4000FB689A81FB681868FB680C331A460421FE
:102A500001F0E0FCFB681868FB680C331A460A2199
:102A600001F048FD034618461837BD4680BD80B5C5
:102A700086B000AFF860B9607A603B600523FB75F3
:102A8000FB681B6807F116020621184600F09CFE41
:102A9000BB7D002B01D0FB7D16E0BB689A88FB68EC
:102AA0009A81FB681868FB680C331A46082100F00D
:102AB0008BFE0346FB75FB6803F10C027B681A6012
:102AC0003B6802221A60FB7D18461837BD4680BD60
:102AD00080B586B000AFF860B96011461A460B4663
:102AE000FB711346BB710123FB750123BB75FB7999
:102AF000052B1DD1BB681B7803F06003002B0DD0A4
:102B0000BB681B785BB2002B08DBBB68DB88002B43
:102B100004D0BB79002B01D10023BB75BB7DDB0149
:102B2000DBB21946F86800F01FFE0346FB7524E08F
:102B30007B6A1B68BA68D288934204D9BB68DB8879
:102B40001A467B6A1A603B6A1A687B6A1B68002116
:102B5000F86800F023FD0346FB75FB7D002B0CD1CC
:102B6000BB681B785BB2002B07DA00230022002130
:102B7000F86800F02CFD0346FB75FB7D18461837FE
:102B8000BD4680BD90B5A7B002AFF860B9607A606D
:102B90000023FB670023BB67052387F88F30BB68E2
:102BA0005B68B3F1FF3F02D07B68002B02D197F83E
:102BB0008F3099E17B68C7F88830D7F888309B68F8
:102BC000C7F8843007F177031A460621F86800F049
:102BD000FBFDBB681B7A002B00F01181BB685B68B2
:102BE000082B03D1BB681B68002B02D197F88F30EC
:102BF0007AE1BB681B68C7F88030D7F880305A8804
:102C0000D7F884305A80D7F880309A88D7F8843043
:102C10009A80D7F88030DA88D7F88430DA80D7F80D
:102C200080305A78D7F884305A70D7F880301A78C4
:102C3000D7F884301A70D7F884301B7803F060031B
:102C4000002B1DD1D7F884305B781A46A84B53F877
:102C50002230002B00F0C180D7F884305B781A4610
:102C6000A34B53F8224007F1780307F17C02D7F811
:102C70008410D7F88800A047034687F88F30ACE06F
:102C8000D7F88430DB88002B64D0D7F884301B78E9
:102C90005BB2002B5EDBD7F88430DB88002B21D0C1
:102CA000D7F884301B7803F02003002B1AD00023C0
:102CB000BB66012387F87030D7F884307B66D7F87D
:102CC0008430DB88FB6607F164031A460121F8684B
:102CD00001F0A0FB034687F88F30FB6EBB67BB6E2D
:102CE000FB6725E0D7F88430DB88002B20D0D7F8AD
:102CF00084301B7803F04003002B19D00023BB6500
:102D0000012387F86030D7F884307B65D7F88430AA
:102D1000DB88FB6507F154031A461321F86801F0BC
:102D2000E9FB034687F88F30FB6DBB67BB6DFB6724
:102D300097F88F30002B50D1FA6FD7F88430DB88AA
:102D40000021F86800F043FC034687F88F3097F8BD
:102D50008F30C9E0D7F884301B7803F02003002BB4
:102D60001AD00023BB64012387F85030D7F8843091
:102D70007B64D7F88430DB88FB6407F144031A4690
:102D80000121F86801F046FB034687F88F30FB6CA1
:102D9000BB67BB6CFB6720E0D7F884301B7803F07F
:102DA0004003002B19D00023BB63012387F8403078
:102DB000D7F884307B63D7F88430DB88FB6307F176
:102DC00034031A461321F86801F094FB034687F890
:102DD0008F30FB6BBB67BB6BFB6797F88F2007F1EE
:102DE0007803019307F17C0300930023D7F8841044
:102DF000F868FFF76DFE034687F88F3072E097F8AA
:102E00007730032B13D1D7F884305B781A46384BD0
:102E100053F8224007F1780307F17C02D7F88410B9
:102E2000D7F88800A047034687F88F305AE0BB6880
:102E30005B68002B56D0D7F88430DB88002B51D04C
:102E4000D7F884301B785BB2002B4BDBD7F884308B
:102E50001B7803F02003002B16D0BB681B68BB62F5
:102E6000002387F83030D7F884307B62BB685B681A
:102E7000FB6207F124031A460121F86801F0CAFA3F
:102E8000034687F88F301CE0D7F884301B7803F0B6
:102E90004003002B15D0BB681B68BB61002387F87B
:102EA0002030D7F884307B61BB685B68FB6107F139
:102EB00014031A461321F86801F01CFB034687F837
:102EC0008F3097F88F2007F17803019307F17C0387
:102ED00000930123D7F88410F868FFF7F9FD034643
:102EE00087F88F3097F88F3018469437BD4690BDDD
:102EF000F076000080B588B000AF786039601A4B7A
:102F0000FB603B683B6101233B770023FB7680231A
:102F1000BB7640233B8307F10C0207F118031946E7
:102F2000786800F06AFB0346FB77FB7F002B01D03B
:102F3000FB7F15E00023BB7607F10C0207F11803B5
:102F40001946786800F059FB0346FB77FB7F002B9E
:102F500005D08021786800F0AFFBFB7F00E0002304
:102F600018462037BD4680BD852B000080B584B053
:102F700000AF03463960FB7107F10803184602F001
:102F80007FFD0023FB601EE02B49FA681346DB003F
:102F90009B1A1B010B441B68002B11D02649FA68B1
:102FA0001346DB009B1A1B010B446D331B78FA7927
:102FB0009A4205D1BB68184602F070FD012336E045
:102FC000FB680133FB60FB68002BDDD00023FB6056
:102FD00025E01949FA681346DB009B1A1B010B44D4
:102FE0001B68002B18D11449FA681346DB009B1AA2
:102FF0001B010B446D33FA791A70FA681346DB0033
:103000009B1A1B010C4A1A443B681A60BB6818469D
:1030100002F044FD00230AE0FB680133FB60FB681B
:10302000002BD6D0BB68184602F038FD02231846A4
:103030001037BD4680BD00BF5C14002080B584B051
:1030400000AF786007F10C03184602F019FD7B68A9
:1030500000221A607B68002283F86D20FB68184606
:1030600002F01CFD002318461037BD4680BDFFFF4F
:1030700080B485B000AF03463960FB710623FB7353
:10308000FB79023B012B05D80023FB733B68054A03
:103090001A6000E000BFFB7B18461437BD465DF8A0
:1030A000047B70472477000090B589B000AFF860CA
:1030B0007A603B600B46FB72FB68BB610123FB77C8
:1030C000FB7A03F00F03FB75FB7ADB09BB75BB6969
:1030D000002B01D103236AE0BB695B68002B63D03E
:1030E000FB7D5B00DAB2BB7D1343DBB21946BA69E4
:1030F0000B465B000B449B00134414331B78002BDE
:1031000001D0022353E007F11003184602F0B8FC87
:10311000FB7D5B00DAB2BB7D1343DBB21946BA69B3
:103120000B465B000B449B001344143301221A70BE
:103130003B69184602F0B2FC97F90B30002B0BDA12
:10314000BB695B689C68BB691868F97A3B687A68F8
:10315000A0470346FB770AE0BB695B68DC68BB6994
:103160001868F97A3B687A68A0470346FB77FB7FCB
:10317000002B1BD007F11003184602F081FCFB7DE9
:103180005B00DAB2BB7D1343DBB21946BA690B466A
:103190005B000B449B001344143300221A703B69FC
:1031A000184602F07BFC01E00623FB77FB7F184604
:1031B0002437BD4690BD80B586B000AFF8600B46A1
:1031C0007A60FB72FB683B610123FB753B69002B56
:1031D00001D1032311E03B695B68002B0AD03B69F6
:1031E0005B685B693A691068F97A7A6898470346C0
:1031F000FB7501E00623FB75FB7D18461837BD46BD
:1032000080BD80B584B000AF786039607B680122F2
:1032100083F86F2000220E217868FFF7CCFF7B68CF
:10322000022283F86E207B68002283F86C20002342
:10323000FB6020E07968FA6813465B0013449B004A
:103240000B440C3300221A607968FA6813465B005D
:1032500013449B000B44103300221A607968FA680B
:1032600013465B0013449B000B44143300221A7076
:10327000FB680133FB60FB68072BDBD97B689B682D
:1032800000220121786898477B68002283F86F202C
:10329000002318461037BD4680BD90B587B000AFFB
:1032A000786039603B681B7A03F00F03BB753B689D
:1032B0001B7ADB097B750123FB753B681B7A102B9E
:1032C00006D139687868FFF79CFF0346FB755EE01E
:1032D000BB7D032B5AD8BB7D5B00DAB27B7D1343E9
:1032E000DBB219467A680B465B000B449B00134423
:1032F0000C331B68002B49D03B681B68BB603B68E4
:103300005B68FB603B685B7A3B743B685B7A002BD5
:1033100007D07B6800221A757B68002283F8202082
:103320000FE0BB7D5B00DAB27B7D1343DBB2194655
:103330007A680B465B000B449B0013441433002255
:103340001A70BB7D5B00DAB27B7D1343DBB219469A
:103350007A680B465B000B449B0013440C331C68DB
:10336000BB7D5B00DAB27B7D1343DBB219467A6822
:103370000B465B000B449B00134410331A6807F1A3
:10338000080319467868A0470346FB7500BFFB7D1C
:1033900018461C37BD4690BD80B584B000AF78603C
:1033A00039607B68FB603B68BB603B68002B02D0E8
:1033B0007B68002B01D103230AE0FB689B68002B8C
:1033C00001D1012304E0B968F868FFF766FF0346FE
:1033D00018461037BD4680BD80B588B000AF0346A3
:1033E000B9607A60FB7300237B617B68002B01D19D
:1033F0000323A0E007F11402FB7B11461846FFF7F8
:10340000B5FD0346FB76FB7E002B01D0FB7E92E0F0
:103410007B69BA689A607B69FA7B83F86D207B6967
:10342000002283F86C207B69002283F86F20002340
:10343000FB6120E07969FA6913465B0013449B0045
:103440000B440C3300221A607969FA6913465B0059
:1034500013449B000B44103300221A607969FA6907
:1034600013465B0013449B000B44143300221A7074
:10347000FB690133FB61FB69072BDBD97B691A1DF3
:10348000FB7B11461846FFF7F3FD0346FB76FB7EF8
:10349000002B05D07B691846FFF7D0FDFB7E4AE084
:1034A0007B695B68002B05D17B691846FFF7C6FD79
:1034B000062340E07B695B681B68002B18D07B69A2
:1034C0005B685B68002B13D07B695B689B68002B93
:1034D0000ED07B695B68DB68002B09D07B695B6879
:1034E0001B69002B04D07B695B685B69002B05D1ED
:1034F0007B691846FFF7A2FD07231CE07A697B6809
:103500001A607B695B681B6879697A69F87B984700
:103510000346FB76FB7E002B08D07B69184600F043
:103520001CF87B6800221A60FB7E04E07B690222A3
:1035300083F86E20FB7E18462037BD4680BD80B5DF
:1035400082B000AF7860002200217868FFF733FE78
:10355000034618460837BD4680BD80B584B000AF2D
:1035600078607B68FB60FB68002B01D1032311E0CE
:10357000FB685B68002B09D0FB685B685B68FA68D6
:10358000126810469847FB6800225A60F868FFF7F7
:1035900055FD002318461037BD4680BD80B584B068
:1035A00000AFF8607A603B600B46FB72FB7A03F079
:1035B0000F03DBB263F07F03D9B23B687A68F86827
:1035C000FFF772FD034618461037BD4680BD80B533
:1035D00084B000AFF8607A603B600B46FB72FB7A08
:1035E00003F00F03D9B23B687A68F868FFF75CFD17
:1035F000034618461037BD4680BD80B586B000AF83
:10360000F860B9607A60FB687B617B69002B01D14F
:1036100003234DE0BB68002B02D07B68002B01D157
:10362000042345E0BB689B7803F00F03FB74BB6881
:103630009B78DB09BB74FB7C032B38D8FB7C5B00DD
:10364000DAB2BB7C1343DBB218467B681A6879692F
:1036500003465B0003449B000B440C331A60FB7C65
:103660005B00DAB2BB7C1343DBB218467B685A6856
:10367000796903465B0003449B000B4410331A60D6
:10368000FB7C5B00DAB2BB7C1343DBB219467A6980
:103690000B465B000B449B001344143300221A704A
:1036A000BA680221F868FFF786FD034600E00423AC
:1036B00018461837BD4680BD80B584B000AF78602D
:1036C0000B46FB707B68FB60FB7803F00F03FB721B
:1036D000FB78DB09BB7201237B72FB68002B01D1F5
:1036E00003233DE0FB1C1A4603217868FFF763FDC6
:1036F00003467B72FB7A032B31D8FB7A5B00DAB28C
:10370000BB7A1343DBB21946FA680B465B000B44E5
:103710009B0013440C3300221A60FB7A5B00DAB280
:10372000BB7A1343DBB21946FA680B465B000B44C5
:103730009B001344103300221A60FB7A5B00DAB25C
:10374000BB7A1343DBB21946FA680B465B000B44A5
:103750009B001344143300221A707B7A00E0042388
:1037600018461037BD4680BD80B582B000AF786086
:103770000B46FB70FB7803F00F03032B07D8FB1CF1
:103780001A4604217868FFF716FD034600E004237B
:1037900018460837BD4680BD80B582B000AF78605E
:1037A0000B46FB70FB7803F00F03032B07D8FB1CC1
:1037B0001A4605217868FFF7FEFC034600E0042363
:1037C00018460837BD4680BD80B586B000AFF860AA
:1037D0000B467A60FB720123FB757B68002B01D1DD
:1037E000042353E0FB7A023B062B4DD801A252F88A
:1037F00023F000BF113800002138000059380000C4
:103800006938000031380000453800007938000080
:103810007A680F21F868FFF7CEFC0346FB7534E0A9
:103820007A681021F868FFF7C6FC0346FB752CE0A8
:103830007B683B610023FB75FB6893F86E203B6956
:103840001A7022E07B683B610023FB75FB6893F8EC
:103850006C203B691A7018E07A680621F868FFF757
:10386000AAFC0346FB7510E07A680721F868FFF7A9
:10387000A2FC0346FB7508E07A680921F868FFF7A7
:103880009AFC0346FB7500E000BFFB7D1846183725
:10389000BD4680BD80B586B000AFF8600B467A604B
:1038A000FB720123FB75FB7A033B0B2B6BD801A248
:1038B00052F823F0E538000087390000873900000E
:1038C000F53800000B390000873900008739000007
:1038D0006739000077390000473900008739000058
:1038E000573900007A681121F868FFF764FC034635
:1038F000FB754DE07B68002B47D00023FB757B6890
:103900001A78FB6883F86E203FE0FB6893F86E300E
:10391000032B0ED07B68002B39D00023FB757B680E
:103920001A78FB6883F86C20FB68032283F86E200A
:103930002DE0FB686C331A460821F868FFF73BFC62
:103940000346FB7523E07A680A21F868FFF733FC29
:103950000346FB751CE07A680B21F868FFF72BFC27
:103960000346FB7514E07A680C21F868FFF723FC26
:103970000346FB750CE07A680D21F868FFF71BFC25
:103980000346FB7504E000BF02E000BF00E000BF9B
:10399000FB7D18461837BD4680BD00BF80B485B09A
:1039A00000AF78600023FB6017E01149FA68134606
:1039B0009B0013449B000B441B68002B0AD1FA6840
:1039C00013469B0013449B00094A1A447B681A6003
:1039D000002306E0FB680133FB60FB68012BE4D9A0
:1039E000022318461437BD465DF8047B704700BFBC
:1039F000CC14002080B483B000AF78607B680022D4
:103A00001A607B6800225A607B6800221A737B6808
:103A100000229A73002318460C37BD465DF8047BDC
:103A2000704780B586B000AFF860B9607A60012356
:103A3000FB757B683B613B69002B01D1032315E0DB
:103A40003B6900225A743B695B68002B0DD03B69CF
:103A50005B681B68002B08D03B695B681B68386992
:103A6000BA68012198470346FB75FB7D1846183755
:103A7000BD4680BD80B586B000AFF860B9607A60A1
:103A80000123FB757B683B613B69002B01D103235C
:103A900015E03B6900229A743B695B68002B0DD0EE
:103AA0003B695B681B68002B08D03B695B681B683F
:103AB0003869BA68022198470346FB75FB7D1846B2
:103AC0001837BD4680BDFFFF80B58EB000AF78606F
:103AD00000237B63012387F833307B681B7B002B3B
:103AE00002D197F83330BAE07B681A7B7B685B6859
:103AF0009B685B799A4202D997F83330AFE07B68D4
:103B00005B689B681B68002B02D197F83330A6E0F6
:103B10007B685B689B681A687B681B7B03F10053BA
:103B2000013BDB0013443B620023FB624BE03B6A3A
:103B30005968FA6A13465B0013449B000B441B78D8
:103B4000032B3DD10023BB6221E03B6A5968FA6A2E
:103B500013465B0013449B000B445A68BB6A1B016D
:103B600013441A787B689B7B9A420DD13B6A596853
:103B7000FA6A13465B0013449B000B445A68BB6A05
:103B80001B0113447B630FE0BB6A0133BB623B6ADA
:103B90005968FA6A13465B0013449B000B441B7A76
:103BA0001A46BB6A9A42D0DC3B6A5968FA6A1346E5
:103BB0005B0013449B000B44DA787B685A7308E07F
:103BC000FB6A0133FB623B6A1B781A46FB6A9A4226
:103BD000ADDC7B6B002B02D197F833303FE07B6884
:103BE0007A6B9A6000237B6231E000233B777B6B2A
:103BF0009A687B6A9B0013441B78BB767B6B9A6840
:103C00007B6A9B0013445B883B837B6B9A687B6A6F
:103C10009B0013445B78FB76BB7EDB09DBB2012B98
:103C200002D1114BFB6001E0104BFB607B683B61F4
:103C30007B681B6807F10C0207F118011846FFF7B3
:103C4000DCFC034687F833307B6A01337B627B6B95
:103C50001B791A467B6A9A42C7DC97F833301846BC
:103C60003837BD4680BD00BF233A0000753A0000DA
:103C700080B584B000AF78600123FB737B689B68DC
:103C8000002B01D1FB7B1EE00023BB6010E07B68B2
:103C900018687B689B689A68BB689B0013441B7814
:103CA0001946FFF709FD0346FB73BB680133BB6090
:103CB0007B689B681B791A46BB689A42E7DC7B6885
:103CC00000229A60FB7B18461037BD4680BDFFFF7F
:103CD00080B58EB000AFF860B9607A60012387F8D4
:103CE00037307B68002B02D0FB68002B01D1032307
:103CF000C1E1FB68BB62BB68013B052B00F2A881F8
:103D000001A252F823F000BF9F3E0000213D0000B9
:103D10003B3D0000873D0000DF3D00003F3E0000CE
:103D2000BB6A00221A73BB6A00225A74BB6A002263
:103D30009A74BB6A00229A609BE17B687B62BB6AD3
:103D40005B68002B00F086817B6A1A78BB6A1B7B5C
:103D50009A4200F08181BB6A1B7B002B05D0B86AB8
:103D6000FFF786FF034687F837307B6A1A78BB6A0D
:103D70001A73BB6A00229A73B86AFFF7A5FE03465E
:103D800087F8373075E1BB6A5B68002B00F066810D
:103D90007B681B887B847B8C87F82130BB6A5A7BCD
:103DA0007B8C1B0A9BB2DBB29A4240F05981BB6A02
:103DB0009B7B97F821209A4200F05481B86AFFF764
:103DC00057FF034687F83730BB6A97F821209A736C
:103DD000B86AFFF779FE034687F8373049E1BB6AD6
:103DE0005B68002B00F04581BB6A9B68002B00F0EC
:103DF00040817B687B6200233B6318E07B6A1A7812
:103E0000BB6A9B6899683B6B9B000B441B789A428A
:103E10000AD1BB6A1A687B6A1B7819461046FFF7FD
:103E2000A3FC034687F837303B6B01333B63BB6A27
:103E30009B681B791A463B6B9A42DFDC19E1BB6A2F
:103E40005B68002B00F01581BB6A9B68002B00F0BB
:103E500010817B687B620023FB6218E07B6A1A7822
:103E6000BB6A9B689968FB6A9B000B441B789A426B
:103E70000AD1BB6A1A687B6A1B7819461046FFF79D
:103E80008BFC034687F83730FB6A0133FB62BB6A61
:103E90009B681B791A46FB6A9A42DFDCE9E07B6883
:103EA000002B00F0E1807B68FB61FB691B681B78DD
:103EB00003F01F03012B40F0D980FB691B689B882E
:103EC000DBB2BA6A527B934240F0D280FB691B6836
:103ED0005B78013B0A2B00F2B68001A252F823F076
:103EE0000D3F0000493F00006B3F000047400000CD
:103EF00047400000474000004740000047400000A6
:103F00008D3F0000FB3F000023400000FB691B6861
:103F10005B881B0A9BB2DBB23B76FB691B685B8844
:103F2000DBB27B76BB6A5B681B68B86A07F110027C
:103F300003219847034687F837303A69FB695A608E
:103F40007A69FB699A6082E0BB6A5B681B68B86A41
:103F5000BA6A0F3204219847034687F83730BB6AA4
:103F600003F10F02FB695A6071E0BB6A5B681B6872
:103F7000B86ABA6A103204219847034687F8373086
:103F8000BB6A03F11002FB695A6060E0FB691B68C1
:103F90005B881B0A9BB2DBB23B76FB691B685B88C4
:103FA000DBB27B76FB691B7B002B14D0FB699B6823
:103FB0007B61BB6A5B681B68B86A07F11002092164
:103FC0009847034687F837303A69FB695A607A693F
:103FD000FB699A603BE0FB695B683B61FB699B683E
:103FE0007B61BB6A5B681B68B86A07F11002062137
:103FF0009847034687F8373029E0FB691B685B88E0
:104000001B0A9BB2DAB2BB6ADA73BB6A5B681B68D5
:10401000B86ABA6A0F3207219847034687F83730E3
:1040200015E0FB691B685B88DAB2BB6A1A74BB6A6D
:104030005B681B68B86ABA6A103208219847034661
:1040400087F8373003E0052387F8373000BF0BE0EF
:1040500000BF0EE000BF0CE000BF0AE000BF08E0B8
:1040600000BF06E000BF04E000BF02E000BF00E0C8
:1040700000BF97F8373018463837BD4680BD00BFBF
:1040800080B586B000AF0346B9607A60FB73012348
:10409000FB7507F110031846FFF780FC0346FB751C
:1040A000FB7D002B01D0FB7D21E03B691A46FB7BA9
:1040B0001146184600F072F90346FB75FB7D002B94
:1040C00001D0FB7D13E03B691B68002B01D103236A
:1040D0000DE03B69BA685A603B6900221A733B697C
:1040E000FF229A733B691A467B681A60FB7D18466B
:1040F0001837BD4680BD80B584B000AF786001231D
:10410000FB737B68BB60BB68002B01D1032308E015
:10411000B868FFF7ADFD0346FB73B868FFF76AFCAC
:10412000FB7B18461037BD4680BD80B586B000AF1A
:10413000F8607A603B600B46FB720123FB75FB68FD
:10414000002B01D103230BE0FB683B613B6918683E
:10415000F97A3B687A68FFF721FA0346FB75FB7D25
:1041600018461837BD4680BD80B584B000AF034601
:104170003960FB7107F10803184601F081FC002348
:10418000FB6018E0284AFB681B0113441B68002BE6
:104190000ED0254AFB681B0113440E331B78FA79B5
:1041A0009A4205D1BB68184601F078FC012337E03C
:1041B000FB680133FB60FB68002BE3D00023FB604E
:1041C00026E0194AFB681B0113441B68002B1CD115
:1041D000154AFB681B0113440E33FA791A70FB6809
:1041E000DB00124A1A441049FB681B010B440833D8
:1041F0001A60FB681B010C4A1A443B681A60BB68D2
:10420000184601F04BFC00230AE0FB680133FB6019
:10421000FB68002BD5D0BB68184601F03FFC022399
:1042200018461037BD4680BDF41400200415002048
:1042300080B584B000AF0346FB710023FB6007F13B
:104240000803184601F01CFC2CE01C4AFB681B010B
:1042500013441B68002B22D0184AFB681B0113442F
:104260000E331B78FA799A4219D1144AFB681B0164
:10427000134400221A60114AFB681B0113440433E3
:1042800000221A600D4AFB681B0113440E33002202
:104290001A70BB68184601F001FC00230AE0FB68B5
:1042A0000133FB60FB68002BCFD0BB68184601F0E0
:1042B000F5FB042318461037BD4680BDF4140020DA
:1042C00080B584B000AF03463960FB710023FB600A
:1042D00007F10803184601F0D3FB1EE0154AFB68FE
:1042E0001B0113441B68002B14D0124AFB681B01EE
:1042F00013440E331B78FA799A420BD1FB681B01E9
:104300000C4A1A443B681A60BB68184601F0C6FBA9
:1043100000230AE0FB680133FB60FB68002BDDD063
:10432000BB68184601F0BAFB042318461037BD4697
:1043300080BD00BFF414002080B584B000AF786069
:1043400039600023FB6007F10803184601F098FB71
:1043500016E0114AFB681B0113441A687B689A42F5
:104360000BD1FB681B010C4A1A443B681A60BB68FE
:10437000184601F093FB00230AE0FB680133FB6061
:10438000FB68002BE5D0BB68184601F087FB0423CF
:1043900018461037BD4680BDF414002080B584B0A7
:1043A00000AF03463960FB710023FB6007F108038F
:1043B000184601F065FB1FE0154AFB681B0113441A
:1043C0001B68002B15D0124AFB681B0113440E33E7
:1043D0001B78FA799A420CD10D4AFB681B011344F1
:1043E0001A683B681A60BB68184601F057FB002347
:1043F0000AE0FB680133FB60FB68002BDCD0BB6884
:10440000184601F04BFB042318461037BD4680BD0B
:10441000F414002090B587B000AFF8600B467A60C6
:10442000FB7201233B7501237B757B68002B01D157
:10443000042359E007F110031946F868FFF77CFFE1
:1044400003463B753B7D002B01D004234CE0002349
:10445000BB7542E00023FB7537E0FB7D244A1B015E
:1044600013440C3319783B695B681868BA7D1346AE
:104470005B0013449B0003449B681B79994221D144
:10448000FB7D1B4A1B01134408331C683B695B68B6
:104490001968BA7D13465B0013449B000B445B68AC
:1044A0001846FB7A7A681946A04703463B753B7D60
:1044B000052B01D1052317E03B7D002B09D10023FB
:1044C0007B7506E0FB7D0133FB75FB7D012BC4D9B9
:1044D00000E000BFBB7D0133BB753B695B681B7AA5
:1044E000BA7D9A42B6D37B7D18461C37BD4690BD37
:1044F0003C77000080B586B000AFF860B9607A60A4
:104500000123FB7507F110031946F868FFF714FF44
:104510000346FB75FB7D002B01D0FB7D17E0BB68DC
:10452000012B0AD13B691946F868FEF7E3FC3B69A9
:104530001A460221F868FFF76DFF3B695B685B680C
:104540007A68B968F86898470346FB75FB7D18469A
:104550001837BD4680BDFFFF90B587B000AF03465A
:10456000B9607A60FB7301237B757B68002B06D0F2
:10457000BB68002B03D0BB685B68002B01D1042310
:1045800070E007F11002FB7B11461846FFF7ECFDC7
:1045900003467B757B7D002B01D07B7D62E03B6910
:1045A000BA685A603B691A46FB7B30491846FEF7E9
:1045B00013FF03467B757B7D002B0AD03B691B688C
:1045C0001846FEF7CAFFFB7B1846FFF731FE7B7DDE
:1045D00048E00023BB753AE00023FB7531E03B69FE
:1045E0005B681968BA7D13465B0013449B000B445B
:1045F0009B681A79FB7D1E491B010B440C331B7809
:104600009A421BD1FB7D1A4A1B0113441C683B696B
:104610005B681968BA7D13465B0013449B00C81899
:104620003B695B681968BA7D13465B0013449B00C5
:104630000B441A1DFB7B01461846A047FB7D013346
:10464000FB75FB7D012BCAD9BB7D0133BB753B6973
:104650005B681B7ABA7D9A42BED33B691A687B6855
:104660001A607B7D18461C37BD4690BDF54400009E
:104670003C77000080B584B000AF03463960FB7121
:104680000123FB7307F10802FB7911461846FFF777
:1046900017FE0346FB73FB7B002B01D0FB7B09E07D
:1046A000BB681B683A6802211846FFF78DF803467D
:1046B000FB73FB7B18461037BD4680BD08B5FBF782
:1046C000ECFD08BD08B5FBF7E8FD08BD08B5FBF734
:1046D000E4FD08BD08B5FBF7E0FD08BD08B5FBF734
:1046E000DCFD08BD08B5FBF7D8FD08BD08B5FBF734
:1046F000D4FD08BD08B5FBF7D0FD08BD08B5FBF734
:10470000CCFD08BD08B5FBF7C8FD08BD08B5FBF733
:10471000C4FD08BD08B5FBF7C0FD08BD08B5FBF733
:10472000BCFD08BD08B5FBF7B8FD08BD08B5FBF733
:10473000B4FD08BD08B5FBF7B0FD08BD08B5FBF733
:10474000ACFD08BD08B5FBF7A8FD08BD08B5FBF733
:10475000A4FD08BD08B5FBF7A0FD08BD08B5FBF733
:104760009CFD08BD08B5FBF798FD08BD08B5FBF733
:1047700094FD08BD08B5FBF790FD08BD08B5FBF733
:104780008CFD08BD08B5FBF788FD08BD08B5FBF733
:1047900084FD08BD08B5FBF780FD08BD08B5FBF733
:1047A0007CFD08BD08B5FBF778FD08BD08B5FBF733
:1047B00074FD08BD08B502F097FC08BD08B5FBF70D
:1047C0006CFD08BD08B502F0ABFC08BD08B5FBF7F1
:1047D00064FD08BD08B502F0BFFC08BD08B5FBF7D5
:1047E0005CFD08BD08B502F0D3FC08BD08B5FBF7B9
:1047F00054FD08BD08B5FBF750FD08BD08B5FBF733
:104800004CFD08BD08B5FBF748FD08BD08B5FBF732
:1048100044FD08BD08B5FBF740FD08BD08B5FBF732
:104820003CFD08BD08B5FBF738FD08BD08B5FBF732
:1048300034FD08BD08B5FBF730FD08BD08B5FBF732
:104840002CFD08BD08B5FBF728FD08BD08B5FBF732
:1048500024FD08BD08B5FBF720FD08BD08B5FBF732
:104860001CFD08BD08B5FBF718FD08BD08B5FBF732
:1048700014FD08BD08B5FBF710FD08BD08B5FBF732
:104880000CFD08BD08B5FBF708FD08BD08B5FBF732
:1048900004FD08BD08B5FBF700FD08BD08B5FBF732
:1048A000FCFC08BD08B5FBF7F8FC08BD08B5FBF734
:1048B000F4FC08BD08B5FBF7F0FC08BD08B5FBF734
:1048C000ECFC08BD08B5FBF7E8FC08BD08B502F034
:1048D0007BFC08BD08B5FBF7E0FC08BD08B5FBF79D
:1048E000DCFC08BD08B5FBF7D8FC08BD08B5FBF734
:1048F000D4FC08BD08B5FBF7D0FC08BD08B5FBF734
:10490000CCFC08BD08B5FBF7C8FC08BD08B5FBF733
:10491000C4FC08BD08B5FBF7C0FC08BD08B5FBF733
:10492000BCFC08BD08B5FBF7B8FC08BD08B5FBF733
:10493000B4FC08BD08B5FBF7B0FC08BD08B5FBF733
:10494000ACFC08BD08B5FBF7A8FC08BD08B5FBF733
:10495000A4FC08BD08B5FBF7A0FC08BD08B5FBF733
:104960009CFC08BD08B5FBF798FC08BD08B502F033
:10497000D1F808BD08B5FBF790FC08BD08B5FBF7FA
:104980008CFC08BD08B5FBF788FC08BD08B5FBF733
:1049900084FC08BD08B5FBF780FC08BD08B5FBF733
:1049A0007CFC08BD08B5FBF778FC08BD08B5FBF733
:1049B00074FC08BD08B5FBF770FC08BD08B5FBF733
:1049C0006CFC08BD08B5FBF768FC08BD08B5FBF733
:1049D00064FC08BD80B483B000AF0346FB7197F957
:1049E0000730002B0BDB094997F907305B09FA798F
:1049F00002F01F02012000FA02F241F8232000BF5A
:104A00000C37BD465DF8047B704700BF00E100E055
:104A100080B483B000AF03463960FB7197F907306B
:104A2000002B0ADB0D4997F907303A68D2B2120120
:104A3000D2B20B4483F800230AE00949FB7903F062
:104A40000F03043B3A68D2B21201D2B20B441A7679
:104A500000BF0C37BD465DF8047B704700E100E005
:104A600000ED00E080B582B000AF0346FB7197F91E
:104A7000073013F1800F01D1012305E097F90730CA
:104A80001846FFF7A7FF002318460837BD4680BD2C
:104A900080B485B000AFF860B9601346FB71FB7954
:104AA000002B05D10122BB689A40FB689A6004E0A4
:104AB0000122BB689A40FB685A6000BF1437BD46AC
:104AC0005DF8047B704780B483B000AF78600B461C
:104AD000FB70FB78002B06D07B681B6843F001025B
:104AE0007B681A6005E07B681B6823F001027B6825
:104AF0001A6000BF0C37BD465DF8047B7047FFFFAE
:104B000080B500AF044B1B681846FDF7A3FCBFF34C
:104B10004F8F00BF80BD00BF0C15002080B582B054
:104B200000AF0D4A3B1D1268114619800233120C6A
:104B30001A700A49002001F0ABF900214FF0FF3054
:104B400001F076F93B1D1A4604490220FCF72CF9C6
:104B500000BF0837BD4680BD5C7700000024F4002C
:104B600080B582B000AF5D233B713B79FB7197F953
:104B7000073003211846FFF74BFF97F90730184617
:104B8000FFF770FF00BF0837BD4680BD80B588B015
:104B900000AFF860B9607A600123FB777B68BB6186
:104BA0007B687B61BB68013B152B00F2ED8001A2A5
:104BB00052F823F00D4C0000894D0000894D000093
:104BC000894D0000894D0000894D0000894D00008D
:104BD000894D0000354C0000714C0000114D000063
:104BE000254D0000394D00004D4D0000614D000085
:104BF000754D0000894D0000894D0000894D000071
:104C0000894D0000BF4C0000D34C00006C4B0022CB
:104C10005A730023FB776B490220FFF72BFD0346F5
:104C2000002B40F0B380664B1B7B1946F86800F000
:104C300061FEABE07B68002B00F0AA80604B012294
:104C40005A737B691A785E4B9A735D4B5A687B691D
:104C50001B781946104600F023FA594B9A687B6975
:104C60001B781946104600F09DF90023FB778FE072
:104C7000534B5B7B002B00F08D80BB691B881B0AAC
:104C80009BB2FB74BB691B88BB74FB7C012B00F2DD
:104C90008180FB7C4A4A1344BA7CDA73484B5B68D8
:104CA000BA7CF97C184600F00DFA454B9B68BA7C3B
:104CB000F97C184600F088F90023FB776AE07B68EE
:104CC000002B69D03E4B9A7B7B691A700023FB77DF
:104CD00062E07B68002B61D0BB691B881B0A9BB21A
:104CE0007B747B7C012B10D8BB691B8823F0FF03EE
:104CF0009AB27B7C32490B44DB7B9BB213439AB262
:104D0000BB691A800023FB7748E00523FB7745E069
:104D10007B68002B44D07968F86800F01DFD0346DD
:104D2000FB773DE07B68002B3CD07968F86800F0A9
:104D300027FD0346FB7735E07B68002B34D079688C
:104D4000F86800F037FD0346FB772DE07B68002B09
:104D50002CD07968F86800F08DFD0346FB7725E0DC
:104D60007B68002B24D07968F86800F08FFD03463B
:104D7000FB771DE07B68002B1CD07968F86800F099
:104D8000ADFD0346FB7715E000BF14E000BF12E065
:104D900000BF10E000BF0EE000BF0CE000BF0AE063
:104DA00000BF08E000BF06E000BF04E000BF02E073
:104DB00000BF00E000BFFB7F18462037BD4680BD26
:104DC0000C1500201815002080B500AFFFF7A6FED7
:104DD00000211D48FFF777FE1C4B00221A731B4B66
:104DE00000225A73194B00225A60184B00229A6015
:104DF000164B00221A60154A15490220FFF7ACFB3A
:104E00000346002B03D01348FBF754FB1AE012486B
:104E1000FBF750FB0E4B1B685B680C4A93600C4B16
:104E20001B680C335B68094A5360084800F0E0F8DF
:104E3000064800F05BF9FFF793FE044B1B68184629
:104E4000FEF77DFB80BD00BF00D000400C150020A8
:104E500018000020607700008877000080B500AF60
:104E600002F0A2FA02F028FA02F0B6F900F0E4FB30
:104E7000FFF7AAFF012202210A48FFF709FE0122DB
:104E800001210848FFF704FE012200210548FFF731
:104E9000FFFD012217210448FFF7FAFD00F052FA46
:104EA000FCE700BF80F00F4040F00F4080B400AF3F
:104EB00000231846BD465DF8047B704780B586B078
:104EC00000AFF860B9607A600123FB75BB68013BF5
:104ED000082B54D801A252F823F000BF014F000064
:104EE0007F4F0000134F00007F4F00007F4F0000F6
:104EF000474F00007F4F00007F4F0000194F000018
:104F0000254B1B685B7B002B3BD0FFF7CFFF034695
:104F10003DE00523FB7539E01F4B1B685B7B002BD5
:104F200031D01E4A7B6813601C4B1B685B68082BE2
:104F300006D81A4B1B681A4A1A600023FB7522E038
:104F40000523FB751FE0144B1B685B7B002B1CD0FB
:104F5000124A7B681360114B1B685B7A002B0BD1E4
:104F60000E4B1B685B68012B06D10C4B1B681B6842
:104F70001B78184600F02EFB0023FB7505E000BFF0
:104F800004E000BF02E000BF00E000BFFB7D184668
:104F90001837BD4680BD00BF2815002034150020FD
:104FA0003815002080B582B000AF78600B46FB70EA
:104FB000FB78012B03D1FFF779FF034600E00123C3
:104FC00018460837BD4680BD80B582B000AF786016
:104FD0000B46FB701346BB70FB78012B03D1FFF728
:104FE00065FF034600E0012318460837BD4680BD33
:104FF00080B483B000AF7860064A7B681360064BCC
:10500000064A1A60002318460C37BD465DF8047B3B
:10501000704700BF281500202C1500202015002007
:1050200080B400AF00231846BD465DF8047B70478E
:1050300080B586B000AFF860B9607A600123FB7577
:10504000BB68013B082B21D801A252F823F000BF16
:10505000755000008D500000875000008D500000FA
:105060008D500000875000008D5000008D500000D2
:1050700087500000094B1B685B7B002B08D0FFF7B3
:10508000CFFF034606E00523FB7502E000BF00E00A
:1050900000BFFB7D18461837BD4680BD4415002073
:1050A00080B582B000AF78600B46FB70FB78012BB7
:1050B00003D1FFF7B5FF034600E001231846083788
:1050C000BD4680BD80B582B000AF78600B46FB70F6
:1050D0001346BB70FB78012B03D1FFF7A1FF0346FA
:1050E00000E0012318460837BD4680BD80B483B078
:1050F00000AF7860064A7B681360064B064A1A6068
:10510000002318460C37BD465DF8047B704700BF8E
:1051100044150020481500204015002080B483B0BD
:1051200000AF03463960FB7197F90730002B0ADBAB
:105130000D4997F907303A68D2B21201D2B20B4446
:1051400083F800230AE00949FB7903F00F03043BCD
:105150003A68D2B21201D2B20B441A7600BF0C37B1
:10516000BD465DF8047B704700E100E000ED00E023
:1051700080B582B000AF78607B68013BB3F1807F7F
:1051800001D301230FE00A4A7B68013B53600F21E2
:105190004FF0FF30FFF7C2FF054B00229A60044B2F
:1051A00007221A60002318460837BD4680BD00BF9D
:1051B00010E000E080B485B000AFF860B96013463D
:1051C000FB71FB79002B05D10122BB689A40FB687B
:1051D0009A6004E00122BB689A40FB685A6000BFF5
:1051E0001437BD465DF8047B7047FFFF80B400AF05
:1051F0000D4B1B6801330C4A13600B4B1A680B4BA9
:10520000A3FB02139B094FF47A7101FB03F3D31A3A
:10521000002B04D1064B1B680133054A136000BF05
:10522000BD465DF8047B704754150020D34D6210D5
:105230005015002080B485B000AF7860084B5B68E3
:10524000FB6000BF064B5A68FB68D21A7B689A4223
:10525000F8D300BF1437BD465DF8047B704700BF2C
:10526000001000E080B48BB000AFF860B960134666
:10527000FB71FA681346DB009B1ABA681344DB0023
:105280002E4A13447B627B6A1B78032B4FD801A202
:1052900052F823F0A5520000CB520000ED5200005E
:1052A0000D530000FB7983F00103DBB2002B01D02A
:1052B00000233DE07B6A01221A70214B1B687B6151
:1052C0007A697B6A5A60012332E01D4B1B68BB611F
:1052D000BA697B6A5B68D31A0A22934201D201231E
:1052E00026E07B6A02221A70012321E0FB79002B61
:1052F00001D001231CE07B6A03221A70104B1B684B
:10530000FB61FA697B6A5A60002311E00C4B1B6851
:105310003B623A6A7B6A5B68D31A0A22934201D2E3
:10532000002305E07B6A00221A70002300E00023BE
:1053300018462C37BD465DF8047B70475815002091
:105340005015002080B588B000AF3B1D00221A60C8
:105350005A60984B00225A6000237B610023FB6156
:10536000C4E0954AFB6952F833209349FB6951F830
:10537000333019689048FB69DB0003445B68012007
:1053800000FA03F3DB430B4013602820FFF752FFC2
:105390008A4B1B69DBB2DB43DBB203F07F03FB7399
:1053A000854AFB6952F833208349FB6951F8333051
:1053B00019688148FB69DB0003445B68012000FA3F
:1053C00003F30B4313600023BB6185E0FA7B0121EB
:1053D000BB6901FA03F31340002B14BF0123002320
:1053E000DBB21A46B969F869FFF73CFF034683F060
:1053F0000103DBB2002B67D17149FA691346DB0068
:105400009B1ACA18BB6913441B78E32B28D0E32BE3
:105410000BDCE02B12D0E02B02DC002B56D03DE061
:10542000E12B11D0E22B15D038E0E52B24D0E52B71
:105430001CDBE62B26D0E72B2AD02FE03B7943F06C
:105440000103DBB23B7144E03B7943F00203DBB282
:105450003B713EE03B7943F00403DBB23B7138E043
:105460003B7943F00803DBB23B7132E03B7943F018
:105470001003DBB23B712CE03B7943F02003DBB23D
:105480003B7126E03B7943F04003DBB23B7120E007
:105490003B7963F07F03DBB23B711AE07B69052B3C
:1054A00016DC7A69531C7B614548F9690B46DB00C1
:1054B0005B1AC118BB690B44197807F12003134428
:1054C0000A4603F81A2C03E000BF02E000BF00E028
:1054D00000BFBB690133BB61BB69062B7FF776AFA9
:1054E0002820FFF7A7FEFB690133FB61FB690E2B48
:1054F0007FF737AF3A79334B1B789A421DD1BA798F
:10550000304B9B789A4218D1FA792E4BDB789A422D
:1055100013D13A7A2B4B1B799A420ED17A7A294BC6
:105520005B799A4209D1BA7A264B9B799A4204D187
:10553000FA7A244BDB799A4236D03A79214B1A70A9
:10554000BA79204B9A70FA791E4BDA703A7A1D4B71
:105550001A717A7A1B4B5A71BA7A1A4B9A71FA7A83
:10556000184BDA7100233B611AE0174B9868082347
:10557000144A0221FEF7D9FD0346BB73BB7B002B07
:1055800014D0124B1B683B603B68BA7B194610482D
:10559000FAF790FFB420FFF74DFE3B6901333B6102
:1055A0003B697C2BE1DD02E000BF00E000BF20375B
:1055B000BD4680BD001000E0A4770000C0F00F40A1
:1055C00024000020A01800200C15002050150020F9
:1055D0001C78000080B582B000AF0346FB71FB79F8
:1055E00003F00203002B0CBF01230023DBB21A4699
:1055F00002211048FFF7DEFDFB7903F02003002BAA
:105600000CBF01230023DBB21A4601210948FFF732
:10561000D1FDFB7903F00403002B0CBF0123002311
:10562000DBB21A4600210348FFF7C4FD00BF08376C
:10563000BD4680BD80F00F4080B582B000AF3E4BCC
:105640001B683E4AA2FB03239B0C1846FFF790FD04
:10565000002202213A48FFF7ADFD0022012138481F
:10566000FFF7A8FD002200213548FFF7A3FD002227
:1056700017213448FFF79EFD314A314B5B6943F0F7
:10568000040353612E4A2E4B5B6943F004035361BC
:105690002B4A2B4B5B6943F001035361294A294B89
:1056A0005B6943F400035361274A274BDB6843F0EF
:1056B0008073D360254A254B1B6843F001031360B8
:1056C000224B00225A60224A214B5B6923F07F0360
:1056D000536100237B6028E01E4A7B6852F8332028
:1056E0001C497B6851F8333059691A487B68DB00E4
:1056F00003445B68012000FA03F30B435361154A2E
:105700007B6852F8332013497B6851F833301968AD
:1057100010487B68DB0003445B68012000FA03F358
:105720000B4313607B6801337B607B680E2BD3DDFA
:1057300000BF0837BD4680BD8802002083DE1B43C2
:1057400080F00F4040F00F40F0ED00E0001000E06E
:10575000C0F00F40A477000080B483B000AF786041
:1057600039603B68054A1A603B6812225A60002380
:1057700018460C37BD465DF8047B70476401002075
:1057800080B483B000AF786039603B681B7A002B2F
:1057900007D13B68064A1A603B683B225A600023E7
:1057A00000E0052318460C37BD465DF8047B7047C2
:1057B0007801002080B485B000AF786039603B6824
:1057C0009B7A002B08D12A4B1A683B681A60284B39
:1057D0005A683B685A6044E00023FB730523BB739F
:1057E00017E03B681989224B9868FA7B13465B00E7
:1057F00013449B0003441B89994207D13B689B7A61
:10580000042B0AD83B689B7ABB7306E0FB7B013311
:10581000FB73FB7B002BE4D000E000BFBB7B052BC0
:1058200001D105231EE0124B9968FA7B13465B00F9
:1058300013449B000B441A68BB7B9B0013441A68FB
:105840003B681A600A4B9968FA7B13465B00134465
:105850009B000B445A68BB7B9B0013441A683B684F
:105860005A60002318461437BD465DF8047B704724
:105870007002002080B483B000AF786039600523E7
:1058800018460C37BD465DF8047B704780B483B082
:1058900000AF786039603B681B7A002B06D13B680B
:1058A0000C4A1A603B6834225A600CE03B681B7A51
:1058B000012B06D13B68084A1A603B683F225A60B8
:1058C00001E0052300E0002318460C37BD465DF8D3
:1058D000047B7047F00000202401002080B483B0D6
:1058E00000AF78603960052318460C37BD465DF877
:1058F000047B704780B485B000AF78600B46FB70C6
:10590000414BFB60414BBB605FE0FB685B78052B64
:1059100055D1FB78022B29D1FB689B785BB2002B19
:105920000FDAFB689B7803F00F03012B09D1FB68AA
:1059300006229A71FB6800225A71FB6808221A71CC
:105940003DE0FB689B785BB2002B38DAFB689B7804
:1059500003F00F03022B32D1FB6806229A71FB6819
:1059600000225A71FB6808221A7128E0FB689B78B4
:105970005BB2002B0FDAFB689B7803F00F03012B5F
:1059800009D1FB6804229A71FB6800225A71FB68F6
:1059900008221A7113E0FB689B785BB2002B0EDAC9
:1059A000FB689B7803F00F03022B08D1FB680422ED
:1059B0009A71FB6800225A71FB6808221A71FB6811
:1059C0001B781A46FB681344FB60FA68BB689A426E
:1059D0009BD3FB78022B03D10D4B08225A8002E0A7
:1059E0000B4B08225A80FB78022B03D1094B08226B
:1059F0005A8002E0074B08225A80002318461437C9
:105A0000BD465DF8047B704778010020B20100209C
:105A1000C00000209000002004207146084202D0FF
:105A2000EFF3098001E0EFF3088081690A884BF603
:105A3000AB639A4200D0FEE70231816120207047BB
:105A400000BF80B483B000AFEFF310833B603B68CE
:105A50007B6072B67B6818460C37BD465DF8047BE8
:105A6000704780B485B000AF78607B68FB60FB68EE
:105A700083F3108800BF1437BD465DF8047B704780
:105A800080B582B000AF7860FFF7DBFF02467B682D
:105A90001A6072B600BF0837BD4680BD80B582B0BF
:105AA00000AF78607868FFF7DCFF00BF0837BD46BD
:105AB00080BDFFFF80B483B000AF78600849084B19
:105AC0001B6823F440227B689B0403F440231343A8
:105AD0000B6000BF0C37BD465DF8047B704700BF0C
